{
  "contractName": "TronFarm",
  "abi": [
    {
      "constant": true,
      "inputs": [],
      "name": "totalPayout",
      "outputs": [
        {
          "name": "",
          "type": "uint256"
        }
      ],
      "payable": false,
      "stateMutability": "view",
      "type": "function"
    },
    {
      "constant": true,
      "inputs": [],
      "name": "totalInvested",
      "outputs": [
        {
          "name": "",
          "type": "uint256"
        }
      ],
      "payable": false,
      "stateMutability": "view",
      "type": "function"
    },
    {
      "constant": true,
      "inputs": [],
      "name": "totalAnimals",
      "outputs": [
        {
          "name": "",
          "type": "uint256"
        }
      ],
      "payable": false,
      "stateMutability": "view",
      "type": "function"
    },
    {
      "constant": true,
      "inputs": [
        {
          "name": "",
          "type": "address"
        }
      ],
      "name": "players",
      "outputs": [
        {
          "name": "coinsReturned",
          "type": "uint256"
        },
        {
          "name": "usedCoins",
          "type": "uint256"
        },
        {
          "name": "allCoins",
          "type": "uint256"
        },
        {
          "name": "time",
          "type": "uint256"
        },
        {
          "name": "coe",
          "type": "uint256"
        }
      ],
      "payable": false,
      "stateMutability": "view",
      "type": "function"
    },
    {
      "constant": true,
      "inputs": [],
      "name": "totalPlayers",
      "outputs": [
        {
          "name": "",
          "type": "uint256"
        }
      ],
      "payable": false,
      "stateMutability": "view",
      "type": "function"
    },
    {
      "inputs": [],
      "payable": false,
      "stateMutability": "nonpayable",
      "type": "constructor"
    },
    {
      "constant": false,
      "inputs": [],
      "name": "deposit",
      "outputs": [
        {
          "name": "success",
          "type": "bool"
        }
      ],
      "payable": true,
      "stateMutability": "payable",
      "type": "function"
    },
    {
      "constant": false,
      "inputs": [
        {
          "name": "_type",
          "type": "uint256"
        },
        {
          "name": "_number",
          "type": "uint256"
        }
      ],
      "name": "buy",
      "outputs": [
        {
          "name": "success",
          "type": "bool"
        }
      ],
      "payable": false,
      "stateMutability": "nonpayable",
      "type": "function"
    },
    {
      "constant": false,
      "inputs": [
        {
          "name": "_coins",
          "type": "uint256"
        }
      ],
      "name": "withdraw",
      "outputs": [
        {
          "name": "success",
          "type": "bool"
        }
      ],
      "payable": false,
      "stateMutability": "nonpayable",
      "type": "function"
    },
    {
      "constant": false,
      "inputs": [
        {
          "name": "_addr",
          "type": "address"
        }
      ],
      "name": "collect",
      "outputs": [],
      "payable": false,
      "stateMutability": "nonpayable",
      "type": "function"
    },
    {
      "constant": true,
      "inputs": [
        {
          "name": "_addr",
          "type": "address"
        }
      ],
      "name": "animalsOf",
      "outputs": [
        {
          "name": "",
          "type": "uint256[5]"
        }
      ],
      "payable": false,
      "stateMutability": "view",
      "type": "function"
    },
    {
      "constant": false,
      "inputs": [
        {
          "name": "_per",
          "type": "uint256"
        }
      ],
      "name": "setCoe",
      "outputs": [],
      "payable": false,
      "stateMutability": "nonpayable",
      "type": "function"
    }
  ],
  "bytecode": "0x608060405260a060405190810160405280600160ff168152602001600260ff168152602001600360ff168152602001600460ff168152602001600560ff168152506000906005610050929190610115565b5060a060405190810160405280600160ff168152602001600160ff168152602001600160ff168152602001600160ff168152602001600160ff16815250600590600561009d929190610115565b506001600a556064600b553480156100b457600080fd5b50d380156100c157600080fd5b50d280156100ce57600080fd5b5033601060006101000a81548173ffffffffffffffffffffffffffffffffffffffff021916908373ffffffffffffffffffffffffffffffffffffffff16021790555061017f565b8260058101928215610149579160200282015b82811115610148578251829060ff16905591602001919060010190610128565b5b509050610156919061015a565b5090565b61017c91905b80821115610178576000816000905550600101610160565b5090565b90565b610c1a8061018e6000396000f3006080604052600436106100af576000357c0100000000000000000000000000000000000000000000000000000000900463ffffffff16806306ec16f8146100b45780632e1a7d4d14610111578063454f7b8f146101705780635216aeec146101b55780636a0ec925146101fa5780639e8db9a61461023f578063c6a45152146102d8578063d0e30db01461031f578063d6febde814610341578063e2eb41ff146103aa578063f60cdcf614610437575b600080fd5b3480156100c057600080fd5b50d380156100cd57600080fd5b50d280156100da57600080fd5b5061010f600480360381019080803573ffffffffffffffffffffffffffffffffffffffff16906020019092919050505061047c565b005b34801561011d57600080fd5b50d3801561012a57600080fd5b50d2801561013757600080fd5b50610156600480360381019080803590602001909291905050506105bf565b604051808215151515815260200191505060405180910390f35b34801561017c57600080fd5b50d3801561018957600080fd5b50d2801561019657600080fd5b5061019f6106cb565b6040518082815260200191505060405180910390f35b3480156101c157600080fd5b50d380156101ce57600080fd5b50d280156101db57600080fd5b506101e46106d1565b6040518082815260200191505060405180910390f35b34801561020657600080fd5b50d3801561021357600080fd5b50d2801561022057600080fd5b506102296106d7565b6040518082815260200191505060405180910390f35b34801561024b57600080fd5b50d3801561025857600080fd5b50d2801561026557600080fd5b5061029a600480360381019080803573ffffffffffffffffffffffffffffffffffffffff1690602001909291905050506106dd565b6040518082600560200280838360005b838110156102c55780820151818401526020810190506102aa565b5050505090500191505060405180910390f35b3480156102e457600080fd5b50d380156102f157600080fd5b50d280156102fe57600080fd5b5061031d6004803603810190808035906020019092919050505061076a565b005b610327610818565b604051808215151515815260200191505060405180910390f35b34801561034d57600080fd5b50d3801561035a57600080fd5b50d2801561036757600080fd5b5061039060048036038101908080359060200190929190803590602001909291905050506108c9565b604051808215151515815260200191505060405180910390f35b3480156103b657600080fd5b50d380156103c357600080fd5b50d280156103d057600080fd5b50610405600480360381019080803573ffffffffffffffffffffffffffffffffffffffff169060200190929190505050610ab0565b604051808681526020018581526020018481526020018381526020018281526020019550505050505060405180910390f35b34801561044357600080fd5b50d3801561045057600080fd5b50d2801561045d57600080fd5b50610466610ae6565b6040518082815260200191505060405180910390f35b600080600080601160008673ffffffffffffffffffffffffffffffffffffffff1673ffffffffffffffffffffffffffffffffffffffff1681526020019081526020016000209350600084600301541115156104d657600080fd5b60003073ffffffffffffffffffffffffffffffffffffffff1631101515156104fd57600080fd5b603c8460030154420381151561050f57fe5b04925060008311156105b857600090505b600581101561055f5760058160058110151561053857fe5b0154846004018260058110151561054b57fe5b015402820191508080600101915050610520565b606484600901548385020281151561057357fe5b048460000154018460000181905550606484600901548385020281151561059657fe5b048460020154018460020181905550603c830284600301540184600301819055505b5050505050565b600080821115156105cf57600080fd5b6105d83361047c565b601160003373ffffffffffffffffffffffffffffffffffffffff1673ffffffffffffffffffffffffffffffffffffffff16815260200190815260200160002060020154821115151561062957600080fd5b81601160003373ffffffffffffffffffffffffffffffffffffffff1673ffffffffffffffffffffffffffffffffffffffff1681526020019081526020016000206002015403601160003373ffffffffffffffffffffffffffffffffffffffff1673ffffffffffffffffffffffffffffffffffffffff168152602001908152602001600020600201819055506106c133607d8402610aec565b5060019050919050565b600f5481565b600d5481565b600e5481565b6106e5610bcb565b601160008373ffffffffffffffffffffffffffffffffffffffff1673ffffffffffffffffffffffffffffffffffffffff16815260200190815260200160002060040160058060200260405190810160405280929190826005801561075e576020028201915b81548152602001906001019080831161074a575b50505050509050919050565b6000601160003373ffffffffffffffffffffffffffffffffffffffff1673ffffffffffffffffffffffffffffffffffffffff16815260200190815260200160002090506107b63361047c565b6000821115156107c557600080fd5b8060020154600a548302111515156107dc57600080fd5b606981600901548301111515156107f257600080fd5b600a54820281600201540381600201819055508181600901540181600901819055505050565b6000806000607d341015151561082d57600080fd5b601160003373ffffffffffffffffffffffffffffffffffffffff1673ffffffffffffffffffffffffffffffffffffffff168152602001908152602001600020915081600201549050607d3481151561088157fe5b04810182600201819055506000826003015414156108c057428260030181905550600c60008154809291906001019190505550600b5482600901819055505b60019250505090565b60008060006005851080156108de5750600084115b15156108e957600080fd5b6108f23361047c565b8360008660058110151561090257fe5b0154029150601160003373ffffffffffffffffffffffffffffffffffffffff1673ffffffffffffffffffffffffffffffffffffffff16815260200190815260200160002090508060020154821115151561095b57600080fd5b81816002015403816002018190555081816001015401816001018190555083816004018660058110151561098b57fe5b015401816004018660058110151561099f57fe5b0181905550600a828115156109b057fe5b0460116000601060009054906101000a900473ffffffffffffffffffffffffffffffffffffffff1673ffffffffffffffffffffffffffffffffffffffff1673ffffffffffffffffffffffffffffffffffffffff168152602001908152602001600020600201540160116000601060009054906101000a900473ffffffffffffffffffffffffffffffffffffffff1673ffffffffffffffffffffffffffffffffffffffff1673ffffffffffffffffffffffffffffffffffffffff168152602001908152602001600020600201819055506009600a83811515610a8d57fe5b0402600d5401600d8190555083600e5401600e8190555060019250505092915050565b60116020528060005260406000206000915090508060000154908060010154908060020154908060030154908060090154905085565b600c5481565b60008060008084118015610b2d5750600073ffffffffffffffffffffffffffffffffffffffff168573ffffffffffffffffffffffffffffffffffffffff1614155b15610bc2573073ffffffffffffffffffffffffffffffffffffffff163191506000821115610bc157818411610b625783610b64565b815b905080600f5401600f819055503373ffffffffffffffffffffffffffffffffffffffff166108fc829081150290604051600060405180830381858888f19350505050158015610bb7573d6000803e3d6000fd5b5060019250610bc3565b5b5b505092915050565b60a0604051908101604052806005906020820280388339808201915050905050905600a165627a7a723058204b7e235bf8b80a53ab054c5c19441b96b74a4df8771a5f615c9746aa5869a4b00029",
  "source": "pragma solidity ^0.4.23;\r\n\r\ncontract TronFarm {\r\n\r\n    uint constant coinPrice = 125;\r\n    uint constant animals = 5;\r\n    uint constant period = 1 minutes;\r\n\r\n    uint[animals] prices = [1, 2, 3, 4, 5];\r\n    uint[animals] profit = [1, 1, 1, 1, 1];\r\n    uint perPrice = 1;\r\n    uint startCoe = 100;\r\n\r\n    uint public totalPlayers;\r\n    uint public totalInvested;\r\n    uint public totalAnimals;\r\n    uint public totalPayout;\r\n\r\n     address owner;\r\n\r\n    struct Player {\r\n        uint coinsReturned;\r\n        uint usedCoins;\r\n        uint allCoins;\r\n        uint time;\r\n        uint[animals] Animals;\r\n        uint coe;\r\n    }\r\n\r\n    mapping(address => Player) public players;\r\n\r\n    constructor() public {\r\n        owner = msg.sender;\r\n    }\r\n\r\n    function deposit() public payable returns(bool success){\r\n        require(msg.value >= coinPrice);\r\n\r\n        Player storage player = players[msg.sender];\r\n        uint startCoins = player.allCoins;\r\n        player.allCoins = startCoins + (msg.value / coinPrice);\r\n\r\n        if (player.time == 0) {\r\n            player.time = now;\r\n            totalPlayers++;\r\n            player.coe = startCoe;\r\n        }\r\n        return true;\r\n    }\r\n\r\n    function buy(uint _type, uint _number) public returns(bool success){\r\n        require(_type < animals && _number > 0);\r\n        collect(msg.sender);\r\n\r\n        uint paymentCoins = prices[_type] * _number;\r\n        Player storage player = players[msg.sender];\r\n\r\n        require(paymentCoins <= player.allCoins);\r\n        player.allCoins = player.allCoins - paymentCoins;\r\n        player.usedCoins = player.usedCoins + paymentCoins;\r\n\r\n        player.Animals[_type] = player.Animals[_type] + _number;\r\n        players[owner].allCoins = players[owner].allCoins +  (paymentCoins / 10);\r\n        totalInvested = totalInvested + (paymentCoins / 10 * 9);\r\n\r\n        totalAnimals = totalAnimals + _number;\r\n        return true;\r\n    }\r\n\r\n    function withdraw(uint _coins) public returns (bool success){\r\n        require(_coins > 0);\r\n        collect(msg.sender);\r\n        require(_coins <= players[msg.sender].allCoins);\r\n\r\n        players[msg.sender].allCoins = players[msg.sender].allCoins - _coins;\r\n        transfer(msg.sender, _coins * coinPrice);\r\n        return true;\r\n     }\r\n\r\n    function collect(address _addr) public {\r\n        Player storage player = players[_addr];\r\n        require(player.time > 0);\r\n        require(address(this).balance >= 0);\r\n\r\n        uint hoursAdded = (now - player.time) / period;\r\n        if (hoursAdded > 0) {\r\n            uint hourlyProfit;\r\n            for (uint i = 0; i < animals; i++) {\r\n                hourlyProfit = hourlyProfit + (player.Animals[i] * profit[i]);\r\n            }\r\n            player.coinsReturned = player.coinsReturned + (hoursAdded * hourlyProfit * player.coe / 100);\r\n            player.allCoins = player.allCoins + (hoursAdded * hourlyProfit * player.coe / 100);\r\n            player.time = player.time + (hoursAdded * period);\r\n        }\r\n    }\r\n\r\n    function transfer(address _to, uint _amount) internal returns(bool success){\r\n        if (_amount > 0 && _to != address(0)) {\r\n            uint contractBalance = address(this).balance;\r\n            if (contractBalance > 0) {\r\n                uint payout = _amount > contractBalance ? contractBalance : _amount;\r\n                totalPayout = totalPayout + payout;\r\n                msg.sender.transfer(payout);\r\n                return true;\r\n            }\r\n        }\r\n    }\r\n\r\n    function animalsOf(address _addr) public view returns (uint [animals]) {\r\n        return players[_addr].Animals;\r\n    }\r\n\r\n    function setCoe(uint _per) public{\r\n        Player storage player = players[msg.sender];\r\n        collect(msg.sender);\r\n\r\n        require(_per > 0);\r\n        require(_per * perPrice <= player.allCoins);\r\n        require(_per + player.coe <= 105);\r\n        player.allCoins = player.allCoins - (_per * perPrice);\r\n\r\n        player.coe = player.coe + _per;\r\n    }\r\n\r\n}\r\n",
  "sourcePath": "D:\\work\\ProjectForEverybody\\Tron-Farm\\Tron-Farm\\contracts\\TronFarm.sol",
  "compiler": {
    "name": "solc",
    "version": "0.4.25+commit.69a1e720.Emscripten.clang"
  },
  "schemaVersion": "2.0.1",
  "updatedAt": "2019-06-19T12:07:52.834Z"
}