{
  "contractName": "TronFarm",
  "abi": [
    {
      "constant": true,
      "inputs": [],
      "name": "totalPayout",
      "outputs": [
        {
          "name": "",
          "type": "uint256"
        }
      ],
      "payable": false,
      "stateMutability": "view",
      "type": "function"
    },
    {
      "constant": true,
      "inputs": [],
      "name": "totalInvested",
      "outputs": [
        {
          "name": "",
          "type": "uint256"
        }
      ],
      "payable": false,
      "stateMutability": "view",
      "type": "function"
    },
    {
      "constant": true,
      "inputs": [],
      "name": "totalAnimals",
      "outputs": [
        {
          "name": "",
          "type": "uint256"
        }
      ],
      "payable": false,
      "stateMutability": "view",
      "type": "function"
    },
    {
      "constant": true,
      "inputs": [
        {
          "name": "",
          "type": "address"
        }
      ],
      "name": "players",
      "outputs": [
        {
          "name": "coinsReturned",
          "type": "uint256"
        },
        {
          "name": "usedCoins",
          "type": "uint256"
        },
        {
          "name": "allCoins",
          "type": "uint256"
        },
        {
          "name": "time",
          "type": "uint256"
        },
        {
          "name": "coe",
          "type": "uint256"
        }
      ],
      "payable": false,
      "stateMutability": "view",
      "type": "function"
    },
    {
      "constant": true,
      "inputs": [],
      "name": "totalPlayers",
      "outputs": [
        {
          "name": "",
          "type": "uint256"
        }
      ],
      "payable": false,
      "stateMutability": "view",
      "type": "function"
    },
    {
      "inputs": [],
      "payable": false,
      "stateMutability": "nonpayable",
      "type": "constructor"
    },
    {
      "constant": false,
      "inputs": [],
      "name": "deposit",
      "outputs": [
        {
          "name": "success",
          "type": "bool"
        }
      ],
      "payable": true,
      "stateMutability": "payable",
      "type": "function"
    },
    {
      "constant": false,
      "inputs": [
        {
          "name": "_type",
          "type": "uint256"
        },
        {
          "name": "_number",
          "type": "uint256"
        }
      ],
      "name": "buy",
      "outputs": [
        {
          "name": "success",
          "type": "bool"
        }
      ],
      "payable": false,
      "stateMutability": "nonpayable",
      "type": "function"
    },
    {
      "constant": false,
      "inputs": [
        {
          "name": "_coins",
          "type": "uint256"
        }
      ],
      "name": "withdraw",
      "outputs": [
        {
          "name": "success",
          "type": "bool"
        }
      ],
      "payable": false,
      "stateMutability": "nonpayable",
      "type": "function"
    },
    {
      "constant": true,
      "inputs": [
        {
          "name": "_addr",
          "type": "address"
        }
      ],
      "name": "animalsOf",
      "outputs": [
        {
          "name": "",
          "type": "uint256[5]"
        }
      ],
      "payable": false,
      "stateMutability": "view",
      "type": "function"
    },
    {
      "constant": false,
      "inputs": [
        {
          "name": "_per",
          "type": "uint256"
        }
      ],
      "name": "setCoe",
      "outputs": [],
      "payable": false,
      "stateMutability": "nonpayable",
      "type": "function"
    }
  ],
  "bytecode": "0x608060405260a060405190810160405280600160ff168152602001600260ff168152602001600160ff168152602001600260ff168152602001600160ff168152506000906005610050929190610115565b5060a060405190810160405280600160ff168152602001600160ff168152602001600160ff168152602001600160ff168152602001600160ff16815250600590600561009d929190610115565b506001600a556064600b553480156100b457600080fd5b50d380156100c157600080fd5b50d280156100ce57600080fd5b5033601060006101000a81548173ffffffffffffffffffffffffffffffffffffffff021916908373ffffffffffffffffffffffffffffffffffffffff16021790555061017f565b8260058101928215610149579160200282015b82811115610148578251829060ff16905591602001919060010190610128565b5b509050610156919061015a565b5090565b61017c91905b80821115610178576000816000905550600101610160565b5090565b90565b610b788061018e6000396000f3006080604052600436106100a4576000357c0100000000000000000000000000000000000000000000000000000000900463ffffffff1680632e1a7d4d146100a9578063454f7b8f146101085780635216aeec1461014d5780636a0ec925146101925780639e8db9a6146101d7578063c6a4515214610270578063d0e30db0146102b7578063d6febde8146102d9578063e2eb41ff14610342578063f60cdcf6146103cf575b600080fd5b3480156100b557600080fd5b50d380156100c257600080fd5b50d280156100cf57600080fd5b506100ee60048036038101908080359060200190929190505050610414565b604051808215151515815260200191505060405180910390f35b34801561011457600080fd5b50d3801561012157600080fd5b50d2801561012e57600080fd5b5061013761051f565b6040518082815260200191505060405180910390f35b34801561015957600080fd5b50d3801561016657600080fd5b50d2801561017357600080fd5b5061017c610525565b6040518082815260200191505060405180910390f35b34801561019e57600080fd5b50d380156101ab57600080fd5b50d280156101b857600080fd5b506101c161052b565b6040518082815260200191505060405180910390f35b3480156101e357600080fd5b50d380156101f057600080fd5b50d280156101fd57600080fd5b50610232600480360381019080803573ffffffffffffffffffffffffffffffffffffffff169060200190929190505050610531565b6040518082600560200280838360005b8381101561025d578082015181840152602081019050610242565b5050505090500191505060405180910390f35b34801561027c57600080fd5b50d3801561028957600080fd5b50d2801561029657600080fd5b506102b5600480360381019080803590602001909291905050506105be565b005b6102bf61066c565b604051808215151515815260200191505060405180910390f35b3480156102e557600080fd5b50d380156102f257600080fd5b50d280156102ff57600080fd5b506103286004803603810190808035906020019092919080359060200190929190505050610717565b604051808215151515815260200191505060405180910390f35b34801561034e57600080fd5b50d3801561035b57600080fd5b50d2801561036857600080fd5b5061039d600480360381019080803573ffffffffffffffffffffffffffffffffffffffff1690602001909291905050506108fe565b604051808681526020018581526020018481526020018381526020018281526020019550505050505060405180910390f35b3480156103db57600080fd5b50d380156103e857600080fd5b50d280156103f557600080fd5b506103fe610934565b6040518082815260200191505060405180910390f35b6000808211151561042457600080fd5b61042d3361093a565b601160003373ffffffffffffffffffffffffffffffffffffffff1673ffffffffffffffffffffffffffffffffffffffff16815260200190815260200160002060020154821115151561047e57600080fd5b81601160003373ffffffffffffffffffffffffffffffffffffffff1673ffffffffffffffffffffffffffffffffffffffff1681526020019081526020016000206002015403601160003373ffffffffffffffffffffffffffffffffffffffff1673ffffffffffffffffffffffffffffffffffffffff1681526020019081526020016000206002018190555061051633607d8402610a56565b60019050919050565b600f5481565b600d5481565b600e5481565b610539610b29565b601160008373ffffffffffffffffffffffffffffffffffffffff1673ffffffffffffffffffffffffffffffffffffffff1681526020019081526020016000206004016005806020026040519081016040528092919082600580156105b2576020028201915b81548152602001906001019080831161059e575b50505050509050919050565b6000601160003373ffffffffffffffffffffffffffffffffffffffff1673ffffffffffffffffffffffffffffffffffffffff168152602001908152602001600020905061060a3361093a565b60008211151561061957600080fd5b8060020154600a5483021115151561063057600080fd5b6069816009015483011115151561064657600080fd5b600a54820281600201540381600201819055508181600901540181600901819055505050565b600080607d341015151561067f57600080fd5b601160003373ffffffffffffffffffffffffffffffffffffffff1673ffffffffffffffffffffffffffffffffffffffff1681526020019081526020016000209050607d348115156106cc57fe5b048160020154018160020181905550600b54816009018190555060008160030154141561070f57428160030181905550600c600081548092919060010191905055505b600191505090565b600080600060058510801561072c5750600084115b151561073757600080fd5b6107403361093a565b8360008660058110151561075057fe5b0154029150601160003373ffffffffffffffffffffffffffffffffffffffff1673ffffffffffffffffffffffffffffffffffffffff1681526020019081526020016000209050806002015482111515156107a957600080fd5b8181600201540381600201819055508181600101540181600101819055508381600401866005811015156107d957fe5b01540181600401866005811015156107ed57fe5b0181905550600a828115156107fe57fe5b0460116000601060009054906101000a900473ffffffffffffffffffffffffffffffffffffffff1673ffffffffffffffffffffffffffffffffffffffff1673ffffffffffffffffffffffffffffffffffffffff168152602001908152602001600020600201540160116000601060009054906101000a900473ffffffffffffffffffffffffffffffffffffffff1673ffffffffffffffffffffffffffffffffffffffff1673ffffffffffffffffffffffffffffffffffffffff168152602001908152602001600020600201819055506009600a838115156108db57fe5b0402600d5401600d8190555083600e5401600e8190555060019250505092915050565b60116020528060005260406000206000915090508060000154908060010154908060020154908060030154908060090154905085565b600c5481565b600080600080601160008673ffffffffffffffffffffffffffffffffffffffff1673ffffffffffffffffffffffffffffffffffffffff16815260200190815260200160002093506000846003015411151561099457600080fd5b603c846003015442038115156109a657fe5b0492506000831115610a4f57600090505b60058110156109f6576005816005811015156109cf57fe5b015484600401826005811015156109e257fe5b0154028201915080806001019150506109b7565b6064846009015483850202811515610a0a57fe5b0484600001540184600001819055506064846009015483850202811515610a2d57fe5b048460020154018460020181905550603c830284600301540184600301819055505b5050505050565b600080600083118015610a965750600073ffffffffffffffffffffffffffffffffffffffff168473ffffffffffffffffffffffffffffffffffffffff1614155b15610b23573073ffffffffffffffffffffffffffffffffffffffff163191506000821115610b2257818311610acb5782610acd565b815b905080600f5401600f819055503373ffffffffffffffffffffffffffffffffffffffff166108fc829081150290604051600060405180830381858888f19350505050158015610b20573d6000803e3d6000fd5b505b5b50505050565b60a0604051908101604052806005906020820280388339808201915050905050905600a165627a7a723058206b149c739f499b751e6c5090e420020963af95f13d8424068e4641d82c9320ef0029",
  "source": "pragma solidity ^0.4.23;\r\n\r\ncontract TronFarm {\r\n\r\n    uint constant coinPrice = 125;\r\n    uint constant animals = 5;\r\n    uint constant period = 1 minutes;\r\n\r\n    uint[animals] prices = [1, 2, 1, 2, 1];\r\n    uint[animals] profit = [1, 1, 1, 1, 1];\r\n    uint perPrice = 1;\r\n    uint startCoe = 100;\r\n\r\n    uint public totalPlayers;\r\n    uint public totalInvested;\r\n    uint public totalAnimals;\r\n    uint public totalPayout;\r\n\r\n    address owner;\r\n\r\n    struct Player {\r\n        uint coinsReturned;\r\n        uint usedCoins;\r\n        uint allCoins;\r\n        uint time;\r\n        uint[animals] Animals;\r\n        uint coe;\r\n    }\r\n\r\n    mapping(address => Player) public players;\r\n\r\n    constructor() public {\r\n        owner = msg.sender;\r\n    }\r\n\r\n    function deposit() public payable returns(bool success){\r\n        require(msg.value >= coinPrice);\r\n\r\n        Player storage player = players[msg.sender];\r\n        player.allCoins = player.allCoins + msg.value / coinPrice;\r\n        player.coe = startCoe;\r\n\r\n        if (player.time == 0) {\r\n            player.time = now;\r\n            totalPlayers++;\r\n        }\r\n        return true;\r\n    }\r\n\r\n    function buy(uint _type, uint _number) public returns(bool success){\r\n        require(_type < animals && _number > 0);\r\n        collect(msg.sender);\r\n\r\n        uint paymentCoins = prices[_type] * _number;\r\n        Player storage player = players[msg.sender];\r\n\r\n        require(paymentCoins <= player.allCoins);\r\n        player.allCoins = player.allCoins - paymentCoins;\r\n        player.usedCoins = player.usedCoins + paymentCoins;\r\n\r\n        player.Animals[_type] = player.Animals[_type] + _number;\r\n        players[owner].allCoins = players[owner].allCoins +  (paymentCoins / 10);\r\n        totalInvested = totalInvested + (paymentCoins / 10 * 9);\r\n\r\n        totalAnimals = totalAnimals + _number;\r\n        return true;\r\n    }\r\n\r\n    function withdraw(uint _coins) public returns (bool success){\r\n        require(_coins > 0);\r\n        collect(msg.sender);\r\n        require(_coins <= players[msg.sender].allCoins);\r\n\r\n        players[msg.sender].allCoins = players[msg.sender].allCoins - _coins;\r\n        transfer(msg.sender, _coins * coinPrice);\r\n        return true;\r\n    }\r\n\r\n    function collect(address _addr) internal {\r\n        Player storage player = players[_addr];\r\n        require(player.time > 0);\r\n\r\n        uint hoursAdded = (now - player.time) / period;\r\n        if (hoursAdded > 0) {\r\n            uint hourlyProfit;\r\n            for (uint i = 0; i < animals; i++) {\r\n                hourlyProfit = hourlyProfit + (player.Animals[i] * profit[i]);\r\n            }\r\n            player.coinsReturned = player.coinsReturned + (hoursAdded * hourlyProfit * player.coe / 100);\r\n            player.allCoins = player.allCoins + (hoursAdded * hourlyProfit * player.coe / 100);\r\n            player.time = player.time + (hoursAdded * period);\r\n        }\r\n    }\r\n\r\n    function transfer(address _to, uint _amount) internal {\r\n        if (_amount > 0 && _to != address(0)) {\r\n            uint contractBalance = address(this).balance;\r\n            if (contractBalance > 0) {\r\n                uint payout = _amount > contractBalance ? contractBalance : _amount;\r\n                totalPayout = totalPayout + payout;\r\n                msg.sender.transfer(payout);\r\n            }\r\n        }\r\n    }\r\n\r\n    function animalsOf(address _addr) public view returns (uint [animals]) {\r\n        return players[_addr].Animals;\r\n    }\r\n\r\n    function setCoe(uint _per) public{\r\n        Player storage player = players[msg.sender];\r\n        collect(msg.sender);\r\n\r\n        require(_per > 0);\r\n        require(_per * perPrice <= player.allCoins);\r\n        require(_per + player.coe <= 105);\r\n        player.allCoins = player.allCoins - (_per * perPrice);\r\n\r\n        player.coe = player.coe + _per;\r\n    }\r\n\r\n}\r\n",
  "sourcePath": "D:\\work\\ProjectForEverybody\\Tron-Farm\\Tron-Farm\\contracts\\TronFarm.sol",
  "compiler": {
    "name": "solc",
    "version": "0.4.25+commit.69a1e720.Emscripten.clang"
  },
  "schemaVersion": "2.0.1",
  "updatedAt": "2019-06-19T08:17:29.130Z"
}