{
  "contractName": "TronFarm",
  "abi": [
    {
      "constant": true,
      "inputs": [],
      "name": "totalPayout",
      "outputs": [
        {
          "name": "",
          "type": "uint256"
        }
      ],
      "payable": false,
      "stateMutability": "view",
      "type": "function"
    },
    {
      "constant": true,
      "inputs": [],
      "name": "totalAnimals",
      "outputs": [
        {
          "name": "",
          "type": "uint256"
        }
      ],
      "payable": false,
      "stateMutability": "view",
      "type": "function"
    },
    {
      "constant": true,
      "inputs": [
        {
          "name": "",
          "type": "address"
        }
      ],
      "name": "players",
      "outputs": [
        {
          "name": "coinsReturned",
          "type": "uint256"
        },
        {
          "name": "usedCoins",
          "type": "uint256"
        },
        {
          "name": "allCoins",
          "type": "uint256"
        },
        {
          "name": "time",
          "type": "uint256"
        },
        {
          "name": "coe",
          "type": "uint256"
        }
      ],
      "payable": false,
      "stateMutability": "view",
      "type": "function"
    },
    {
      "constant": true,
      "inputs": [],
      "name": "totalPlayers",
      "outputs": [
        {
          "name": "",
          "type": "uint256"
        }
      ],
      "payable": false,
      "stateMutability": "view",
      "type": "function"
    },
    {
      "inputs": [],
      "payable": false,
      "stateMutability": "nonpayable",
      "type": "constructor"
    },
    {
      "constant": false,
      "inputs": [],
      "name": "deposit",
      "outputs": [
        {
          "name": "success",
          "type": "bool"
        }
      ],
      "payable": true,
      "stateMutability": "payable",
      "type": "function"
    },
    {
      "constant": false,
      "inputs": [
        {
          "name": "_type",
          "type": "uint256"
        },
        {
          "name": "_number",
          "type": "uint256"
        }
      ],
      "name": "buy",
      "outputs": [
        {
          "name": "success",
          "type": "bool"
        }
      ],
      "payable": false,
      "stateMutability": "nonpayable",
      "type": "function"
    },
    {
      "constant": false,
      "inputs": [
        {
          "name": "_coins",
          "type": "uint256"
        }
      ],
      "name": "withdraw",
      "outputs": [
        {
          "name": "success",
          "type": "bool"
        }
      ],
      "payable": false,
      "stateMutability": "nonpayable",
      "type": "function"
    },
    {
      "constant": true,
      "inputs": [
        {
          "name": "_addr",
          "type": "address"
        }
      ],
      "name": "animalsOf",
      "outputs": [
        {
          "name": "",
          "type": "uint256[5]"
        }
      ],
      "payable": false,
      "stateMutability": "view",
      "type": "function"
    },
    {
      "constant": false,
      "inputs": [
        {
          "name": "_per",
          "type": "uint256"
        }
      ],
      "name": "setCoe",
      "outputs": [],
      "payable": false,
      "stateMutability": "nonpayable",
      "type": "function"
    }
  ],
  "bytecode": "0x608060405260a06040519081016040528061226062ffffff16815260200161753062ffffff168152602001620186a062ffffff1681526020016203840062ffffff1681526020016207003062ffffff168152506000906005620000649291906200013a565b5060a06040519081016040528061012c61ffff1681526020016103e861ffff168152602001610fa061ffff168152602001611f4061ffff168152602001613e8061ffff168152506005906005620000bd92919062000186565b50611194600a556064600b55348015620000d657600080fd5b50d38015620000e457600080fd5b50d28015620000f257600080fd5b5033600f60006101000a81548173ffffffffffffffffffffffffffffffffffffffff021916908373ffffffffffffffffffffffffffffffffffffffff160217905550620001f9565b826005810192821562000173579160200282015b8281111562000172578251829062ffffff169055916020019190600101906200014e565b5b509050620001829190620001d1565b5090565b8260058101928215620001be579160200282015b82811115620001bd578251829061ffff169055916020019190600101906200019a565b5b509050620001cd9190620001d1565b5090565b620001f691905b80821115620001f2576000816000905550600101620001d8565b5090565b90565b610c9880620002096000396000f300608060405260043610610099576000357c0100000000000000000000000000000000000000000000000000000000900463ffffffff1680632e1a7d4d1461009e578063454f7b8f146100fd5780636a0ec925146101425780639e8db9a614610187578063c6a4515214610220578063d0e30db014610267578063d6febde814610289578063e2eb41ff146102f2578063f60cdcf61461037f575b600080fd5b3480156100aa57600080fd5b50d380156100b757600080fd5b50d280156100c457600080fd5b506100e3600480360381019080803590602001909291905050506103c4565b604051808215151515815260200191505060405180910390f35b34801561010957600080fd5b50d3801561011657600080fd5b50d2801561012357600080fd5b5061012c61055c565b6040518082815260200191505060405180910390f35b34801561014e57600080fd5b50d3801561015b57600080fd5b50d2801561016857600080fd5b50610171610562565b6040518082815260200191505060405180910390f35b34801561019357600080fd5b50d380156101a057600080fd5b50d280156101ad57600080fd5b506101e2600480360381019080803573ffffffffffffffffffffffffffffffffffffffff169060200190929190505050610568565b6040518082600560200280838360005b8381101561020d5780820151818401526020810190506101f2565b5050505090500191505060405180910390f35b34801561022c57600080fd5b50d3801561023957600080fd5b50d2801561024657600080fd5b50610265600480360381019080803590602001909291905050506105f5565b005b61026f610781565b604051808215151515815260200191505060405180910390f35b34801561029557600080fd5b50d380156102a257600080fd5b50d280156102af57600080fd5b506102d86004803603810190808035906020019092919080359060200190929190505050610850565b604051808215151515815260200191505060405180910390f35b3480156102fe57600080fd5b50d3801561030b57600080fd5b50d2801561031857600080fd5b5061034d600480360381019080803573ffffffffffffffffffffffffffffffffffffffff169060200190929190505050610a0e565b604051808681526020018581526020018481526020018381526020018281526020019550505050505060405180910390f35b34801561038b57600080fd5b50d3801561039857600080fd5b50d280156103a557600080fd5b506103ae610a44565b6040518082815260200191505060405180910390f35b600080821115156103d457600080fd5b6103dd33610a4a565b601060003373ffffffffffffffffffffffffffffffffffffffff1673ffffffffffffffffffffffffffffffffffffffff16815260200190815260200160002060020154821115151561042e57600080fd5b81601060003373ffffffffffffffffffffffffffffffffffffffff1673ffffffffffffffffffffffffffffffffffffffff1681526020019081526020016000206002015403601060003373ffffffffffffffffffffffffffffffffffffffff1673ffffffffffffffffffffffffffffffffffffffff1681526020019081526020016000206002018190555081601060003373ffffffffffffffffffffffffffffffffffffffff1673ffffffffffffffffffffffffffffffffffffffff1681526020019081526020016000206000015401601060003373ffffffffffffffffffffffffffffffffffffffff1673ffffffffffffffffffffffffffffffffffffffff16815260200190815260200160002060000181905550610552336130d48402610b6a565b5060019050919050565b600e5481565b600d5481565b610570610c49565b601060008373ffffffffffffffffffffffffffffffffffffffff1673ffffffffffffffffffffffffffffffffffffffff1681526020019081526020016000206004016005806020026040519081016040528092919082600580156105e9576020028201915b8154815260200190600101908083116105d5575b50505050509050919050565b6000601060003373ffffffffffffffffffffffffffffffffffffffff1673ffffffffffffffffffffffffffffffffffffffff168152602001908152602001600020905061064133610a4a565b60008211151561065057600080fd5b8060020154600a5483021115151561066757600080fd5b6069816009015483011115151561067d57600080fd5b600a5482028160020154038160020181905550600a8054830281151561069f57fe5b0460106000600f60009054906101000a900473ffffffffffffffffffffffffffffffffffffffff1673ffffffffffffffffffffffffffffffffffffffff1673ffffffffffffffffffffffffffffffffffffffff168152602001908152602001600020600201540160106000600f60009054906101000a900473ffffffffffffffffffffffffffffffffffffffff1673ffffffffffffffffffffffffffffffffffffffff1673ffffffffffffffffffffffffffffffffffffffff168152602001908152602001600020600201819055508181600901540181600901819055505050565b60008060006130d4341015151561079757600080fd5b601060003373ffffffffffffffffffffffffffffffffffffffff1673ffffffffffffffffffffffffffffffffffffffff1681526020019081526020016000209150816002015490506130d4348115156107ec57fe5b04810182600201819055506130d43481151561080457fe5b04826001015401826001018190555060008260030154141561084757428260030181905550600c60008154809291906001019190505550600b5482600901819055505b60019250505090565b60008060006005851080156108655750600084115b151561087057600080fd5b61087933610a4a565b8360008660058110151561088957fe5b0154029150601060003373ffffffffffffffffffffffffffffffffffffffff1673ffffffffffffffffffffffffffffffffffffffff1681526020019081526020016000209050806002015482111515156108e257600080fd5b81816002015403816002018190555083816004018660058110151561090357fe5b015401816004018660058110151561091757fe5b0181905550600a8281151561092857fe5b0460106000600f60009054906101000a900473ffffffffffffffffffffffffffffffffffffffff1673ffffffffffffffffffffffffffffffffffffffff1673ffffffffffffffffffffffffffffffffffffffff168152602001908152602001600020600201540160106000600f60009054906101000a900473ffffffffffffffffffffffffffffffffffffffff1673ffffffffffffffffffffffffffffffffffffffff1673ffffffffffffffffffffffffffffffffffffffff1681526020019081526020016000206002018190555083600d5401600d8190555060019250505092915050565b60106020528060005260406000206000915090508060000154908060010154908060020154908060030154908060090154905085565b600c5481565b600080600080601060008673ffffffffffffffffffffffffffffffffffffffff1673ffffffffffffffffffffffffffffffffffffffff168152602001908152602001600020935060008460030154111515610aa457600080fd5b60003073ffffffffffffffffffffffffffffffffffffffff163110151515610acb57600080fd5b607884600301544203811515610add57fe5b0492506000831115610b6357600090505b6005811015610b2d57600581600581101515610b0657fe5b01548460040182600581101515610b1957fe5b015402820191508080600101915050610aee565b6064846009015483850202811515610b4157fe5b0484600201540184600201819055506078830284600301540184600301819055505b5050505050565b60008060008084118015610bab5750600073ffffffffffffffffffffffffffffffffffffffff168573ffffffffffffffffffffffffffffffffffffffff1614155b15610c40573073ffffffffffffffffffffffffffffffffffffffff163191506000821115610c3f57818411610be05783610be2565b815b905080600e5401600e819055503373ffffffffffffffffffffffffffffffffffffffff166108fc829081150290604051600060405180830381858888f19350505050158015610c35573d6000803e3d6000fd5b5060019250610c41565b5b5b505092915050565b60a0604051908101604052806005906020820280388339808201915050905050905600a165627a7a72305820d34d5cc943631c4d5566ef29e198b3c4975ed98537c1fe77fcbb2a0efd6d30620029",
  "source": "pragma solidity ^0.4.23;\r\n\r\ncontract TronFarm {\r\n\r\n    uint constant coinPrice = 12500;\r\n    uint constant animals = 5;\r\n    uint constant period = 2 minutes;\r\n\r\n    uint[animals] prices = [8800, 30000, 100000, 230400, 458800];\r\n    uint[animals] profit = [300, 1000, 4000, 8000, 16000];\r\n    uint perPrice = 4500;\r\n    uint startCoe = 100;\r\n\r\n    uint public totalPlayers;\r\n    uint public totalAnimals;\r\n    uint public totalPayout;\r\n     address owner;\r\n\r\n    struct Player {\r\n        uint coinsReturned;\r\n        uint usedCoins;\r\n        uint allCoins;\r\n        uint time;\r\n        uint[animals] Animals;\r\n        uint coe;\r\n    }\r\n\r\n    mapping(address => Player) public players;\r\n\r\n    constructor() public {\r\n        owner = msg.sender;\r\n    }\r\n\r\n    function deposit() public payable returns(bool success){\r\n        require(msg.value >= coinPrice);\r\n\r\n        Player storage player = players[msg.sender];\r\n        uint startCoins = player.allCoins;\r\n        player.allCoins = startCoins + (msg.value / coinPrice);\r\n        player.usedCoins = player.usedCoins + msg.value / coinPrice;\r\n\r\n        if (player.time == 0) {\r\n            player.time = now;\r\n            totalPlayers++;\r\n            player.coe = startCoe;\r\n        }\r\n        return true;\r\n    }\r\n\r\n    function buy(uint _type, uint _number) public returns(bool success){\r\n        require(_type < animals && _number > 0);\r\n        collect(msg.sender);\r\n\r\n        uint paymentCoins = prices[_type] * _number;\r\n        Player storage player = players[msg.sender];\r\n\r\n        require(paymentCoins <= player.allCoins);\r\n        player.allCoins = player.allCoins - paymentCoins;\r\n\r\n        player.Animals[_type] = player.Animals[_type] + _number;\r\n        players[owner].allCoins = players[owner].allCoins +  (paymentCoins / 10);\r\n\r\n        totalAnimals = totalAnimals + _number;\r\n        return true;\r\n    }\r\n\r\n    function withdraw(uint _coins) public returns (bool success){\r\n        require(_coins > 0);\r\n        collect(msg.sender);\r\n        require(_coins <= players[msg.sender].allCoins);\r\n\r\n        players[msg.sender].allCoins = players[msg.sender].allCoins - _coins;\r\n        players[msg.sender].coinsReturned = players[msg.sender].coinsReturned + _coins;\r\n        transfer(msg.sender, _coins * coinPrice);\r\n        return true;\r\n     }\r\n\r\n    function collect(address _addr) internal {\r\n        Player storage player = players[_addr];\r\n        require(player.time > 0);\r\n        require(address(this).balance >= 0);\r\n\r\n        uint hoursAdded = (now - player.time) / period;\r\n        if (hoursAdded > 0) {\r\n            uint hourlyProfit;\r\n            for (uint i = 0; i < animals; i++) {\r\n                hourlyProfit = hourlyProfit + (player.Animals[i] * profit[i]);\r\n            }\r\n            player.allCoins = player.allCoins + (hoursAdded * hourlyProfit * player.coe / 100);\r\n            player.time = player.time + (hoursAdded * period);\r\n        }\r\n    }\r\n\r\n    function transfer(address _to, uint _amount) internal returns(bool success){\r\n        if (_amount > 0 && _to != address(0)) {\r\n            uint contractBalance = address(this).balance;\r\n            if (contractBalance > 0) {\r\n                uint payout = _amount > contractBalance ? contractBalance : _amount;\r\n                totalPayout = totalPayout + payout;\r\n                msg.sender.transfer(payout);\r\n                return true;\r\n            }\r\n        }\r\n    }\r\n\r\n    function animalsOf(address _addr) public view returns (uint [animals]) {\r\n        return players[_addr].Animals;\r\n    }\r\n\r\n    function setCoe(uint _per) public{\r\n        Player storage player = players[msg.sender];\r\n        collect(msg.sender);\r\n\r\n        require(_per > 0);\r\n        require(_per * perPrice <= player.allCoins);\r\n        require(_per + player.coe <= 105);\r\n        player.allCoins = player.allCoins - (_per * perPrice);\r\n        players[owner].allCoins = players[owner].allCoins +  (_per * perPrice)/10;\r\n\r\n        player.coe = player.coe + _per;\r\n    }\r\n\r\n}\r\n",
  "sourcePath": "D:\\work\\ProjectForEverybody\\Tron-Farm\\Tron-Farm\\contracts\\TronFarm.sol",
  "compiler": {
    "name": "solc",
    "version": "0.4.25+commit.69a1e720.Emscripten.clang"
  },
  "schemaVersion": "2.0.1",
  "updatedAt": "2019-07-10T17:07:23.091Z"
}