{
  "contractName": "TronFarm",
  "abi": [
    {
      "constant": true,
      "inputs": [],
      "name": "totalPayout",
      "outputs": [
        {
          "name": "",
          "type": "uint256"
        }
      ],
      "payable": false,
      "stateMutability": "view",
      "type": "function"
    },
    {
      "constant": true,
      "inputs": [],
      "name": "last",
      "outputs": [
        {
          "name": "",
          "type": "uint256"
        }
      ],
      "payable": false,
      "stateMutability": "view",
      "type": "function"
    },
    {
      "constant": true,
      "inputs": [],
      "name": "totalAnimals",
      "outputs": [
        {
          "name": "",
          "type": "uint256"
        }
      ],
      "payable": false,
      "stateMutability": "view",
      "type": "function"
    },
    {
      "constant": true,
      "inputs": [],
      "name": "owner",
      "outputs": [
        {
          "name": "",
          "type": "address"
        }
      ],
      "payable": false,
      "stateMutability": "view",
      "type": "function"
    },
    {
      "constant": true,
      "inputs": [
        {
          "name": "",
          "type": "address"
        }
      ],
      "name": "players",
      "outputs": [
        {
          "name": "coinsReturned",
          "type": "uint256"
        },
        {
          "name": "usedCoins",
          "type": "uint256"
        },
        {
          "name": "allCoins",
          "type": "uint256"
        },
        {
          "name": "time",
          "type": "uint256"
        },
        {
          "name": "coe",
          "type": "uint256"
        }
      ],
      "payable": false,
      "stateMutability": "view",
      "type": "function"
    },
    {
      "constant": true,
      "inputs": [],
      "name": "totalPlayers",
      "outputs": [
        {
          "name": "",
          "type": "uint256"
        }
      ],
      "payable": false,
      "stateMutability": "view",
      "type": "function"
    },
    {
      "inputs": [],
      "payable": false,
      "stateMutability": "nonpayable",
      "type": "constructor"
    },
    {
      "constant": false,
      "inputs": [],
      "name": "deposit",
      "outputs": [
        {
          "name": "success",
          "type": "bool"
        }
      ],
      "payable": true,
      "stateMutability": "payable",
      "type": "function"
    },
    {
      "constant": false,
      "inputs": [
        {
          "name": "_type",
          "type": "uint256"
        },
        {
          "name": "_number",
          "type": "uint256"
        }
      ],
      "name": "buy",
      "outputs": [
        {
          "name": "success",
          "type": "bool"
        }
      ],
      "payable": false,
      "stateMutability": "nonpayable",
      "type": "function"
    },
    {
      "constant": false,
      "inputs": [
        {
          "name": "_coins",
          "type": "uint256"
        }
      ],
      "name": "withdraw",
      "outputs": [
        {
          "name": "success",
          "type": "bool"
        }
      ],
      "payable": false,
      "stateMutability": "nonpayable",
      "type": "function"
    },
    {
      "constant": true,
      "inputs": [
        {
          "name": "_addr",
          "type": "address"
        }
      ],
      "name": "animalsOf",
      "outputs": [
        {
          "name": "",
          "type": "uint256[5]"
        }
      ],
      "payable": false,
      "stateMutability": "view",
      "type": "function"
    },
    {
      "constant": false,
      "inputs": [
        {
          "name": "_per",
          "type": "uint256"
        }
      ],
      "name": "setCoe",
      "outputs": [],
      "payable": false,
      "stateMutability": "nonpayable",
      "type": "function"
    }
  ],
  "bytecode": "0x608060405260a0604051908101604052806120d062ffffff16815260200161753062ffffff168152602001620186a062ffffff1681526020016203840062ffffff1681526020016207003062ffffff168152506000906005620000649291906200013f565b5060a060405190810160405280601661ffff168152602001605061ffff16815260200161011061ffff16815260200161028061ffff16815260200161051461ffff168152506005906005620000bb9291906200018b565b506109c4600a556064600b55348015620000d457600080fd5b50d38015620000e257600080fd5b50d28015620000f057600080fd5b5033601060006101000a81548173ffffffffffffffffffffffffffffffffffffffff021916908373ffffffffffffffffffffffffffffffffffffffff16021790555042600c81905550620001fe565b826005810192821562000178579160200282015b8281111562000177578251829062ffffff1690559160200191906001019062000153565b5b509050620001879190620001d6565b5090565b8260058101928215620001c3579160200282015b82811115620001c2578251829061ffff169055916020019190600101906200019f565b5b509050620001d29190620001d6565b5090565b620001fb91905b80821115620001f7576000816000905550600101620001dd565b5090565b90565b610db1806200020e6000396000f3006080604052600436106100af576000357c0100000000000000000000000000000000000000000000000000000000900463ffffffff1680632e1a7d4d146100b4578063454f7b8f1461011357806347799da8146101585780636a0ec9251461019d5780638da5cb5b146101e25780639e8db9a614610253578063c6a45152146102ec578063d0e30db014610333578063d6febde814610355578063e2eb41ff146103be578063f60cdcf61461044b575b600080fd5b3480156100c057600080fd5b50d380156100cd57600080fd5b50d280156100da57600080fd5b506100f960048036038101908080359060200190929190505050610490565b604051808215151515815260200191505060405180910390f35b34801561011f57600080fd5b50d3801561012c57600080fd5b50d2801561013957600080fd5b50610142610512565b6040518082815260200191505060405180910390f35b34801561016457600080fd5b50d3801561017157600080fd5b50d2801561017e57600080fd5b50610187610518565b6040518082815260200191505060405180910390f35b3480156101a957600080fd5b50d380156101b657600080fd5b50d280156101c357600080fd5b506101cc61051e565b6040518082815260200191505060405180910390f35b3480156101ee57600080fd5b50d380156101fb57600080fd5b50d2801561020857600080fd5b50610211610524565b604051808273ffffffffffffffffffffffffffffffffffffffff1673ffffffffffffffffffffffffffffffffffffffff16815260200191505060405180910390f35b34801561025f57600080fd5b50d3801561026c57600080fd5b50d2801561027957600080fd5b506102ae600480360381019080803573ffffffffffffffffffffffffffffffffffffffff16906020019092919050505061054a565b6040518082600560200280838360005b838110156102d95780820151818401526020810190506102be565b5050505090500191505060405180910390f35b3480156102f857600080fd5b50d3801561030557600080fd5b50d2801561031257600080fd5b50610331600480360381019080803590602001909291905050506105d7565b005b61033b610763565b604051808215151515815260200191505060405180910390f35b34801561036157600080fd5b50d3801561036e57600080fd5b50d2801561037b57600080fd5b506103a46004803603810190808035906020019092919080359060200190929190505050610832565b604051808215151515815260200191505060405180910390f35b3480156103ca57600080fd5b50d380156103d757600080fd5b50d280156103e457600080fd5b50610419600480360381019080803573ffffffffffffffffffffffffffffffffffffffff1690602001909291905050506109f0565b604051808681526020018581526020018481526020018381526020018281526020019550505050505060405180910390f35b34801561045757600080fd5b50d3801561046457600080fd5b50d2801561047157600080fd5b5061047a610a26565b6040518082815260200191505060405180910390f35b600080821115156104a057600080fd5b6104a933610a2c565b601160003373ffffffffffffffffffffffffffffffffffffffff1673ffffffffffffffffffffffffffffffffffffffff1681526020019081526020016000206002015482111515156104fa57600080fd5b610508336130d48402610b4c565b5060019050919050565b600f5481565b600c5481565b600e5481565b601060009054906101000a900473ffffffffffffffffffffffffffffffffffffffff1681565b610552610d62565b601160008373ffffffffffffffffffffffffffffffffffffffff1673ffffffffffffffffffffffffffffffffffffffff1681526020019081526020016000206004016005806020026040519081016040528092919082600580156105cb576020028201915b8154815260200190600101908083116105b7575b50505050509050919050565b6000601160003373ffffffffffffffffffffffffffffffffffffffff1673ffffffffffffffffffffffffffffffffffffffff168152602001908152602001600020905061062333610a2c565b60008211151561063257600080fd5b8060020154600a5483021115151561064957600080fd5b6069816009015483011115151561065f57600080fd5b600a5482028160020154038160020181905550600a8054830281151561068157fe5b0460116000601060009054906101000a900473ffffffffffffffffffffffffffffffffffffffff1673ffffffffffffffffffffffffffffffffffffffff1673ffffffffffffffffffffffffffffffffffffffff168152602001908152602001600020600201540160116000601060009054906101000a900473ffffffffffffffffffffffffffffffffffffffff1673ffffffffffffffffffffffffffffffffffffffff1673ffffffffffffffffffffffffffffffffffffffff168152602001908152602001600020600201819055508181600901540181600901819055505050565b60008060006130d4341015151561077957600080fd5b601160003373ffffffffffffffffffffffffffffffffffffffff1673ffffffffffffffffffffffffffffffffffffffff1681526020019081526020016000209150816002015490506130d4348115156107ce57fe5b04810182600201819055506130d4348115156107e657fe5b04826001015401826001018190555060008260030154141561082957428260030181905550600d60008154809291906001019190505550600b5482600901819055505b60019250505090565b60008060006005851080156108475750600084115b151561085257600080fd5b61085b33610a2c565b8360008660058110151561086b57fe5b0154029150601160003373ffffffffffffffffffffffffffffffffffffffff1673ffffffffffffffffffffffffffffffffffffffff1681526020019081526020016000209050806002015482111515156108c457600080fd5b8181600201540381600201819055508381600401866005811015156108e557fe5b01540181600401866005811015156108f957fe5b0181905550600a8281151561090a57fe5b0460116000601060009054906101000a900473ffffffffffffffffffffffffffffffffffffffff1673ffffffffffffffffffffffffffffffffffffffff1673ffffffffffffffffffffffffffffffffffffffff168152602001908152602001600020600201540160116000601060009054906101000a900473ffffffffffffffffffffffffffffffffffffffff1673ffffffffffffffffffffffffffffffffffffffff1673ffffffffffffffffffffffffffffffffffffffff1681526020019081526020016000206002018190555083600e5401600e8190555060019250505092915050565b60116020528060005260406000206000915090508060000154908060010154908060020154908060030154908060090154905085565b600d5481565b600080600080601160008673ffffffffffffffffffffffffffffffffffffffff1673ffffffffffffffffffffffffffffffffffffffff168152602001908152602001600020935060008460030154111515610a8657600080fd5b60003073ffffffffffffffffffffffffffffffffffffffff163110151515610aad57600080fd5b603c84600301544203811515610abf57fe5b0492506000831115610b4557600090505b6005811015610b0f57600581600581101515610ae857fe5b01548460040182600581101515610afb57fe5b015402820191508080600101915050610ad0565b6064846009015483850202811515610b2357fe5b048460020154018460020181905550603c830284600301540184600301819055505b5050505050565b60008060008084118015610b8d5750600073ffffffffffffffffffffffffffffffffffffffff168573ffffffffffffffffffffffffffffffffffffffff1614155b15610d59573073ffffffffffffffffffffffffffffffffffffffff163191506000821115610d5857818411610bc25783610bc4565b815b905080600f5401600f819055506130d481811515610bde57fe5b04601160003373ffffffffffffffffffffffffffffffffffffffff1673ffffffffffffffffffffffffffffffffffffffff1681526020019081526020016000206002015403601160003373ffffffffffffffffffffffffffffffffffffffff1673ffffffffffffffffffffffffffffffffffffffff168152602001908152602001600020600201819055506130d481811515610c7657fe5b04601160003373ffffffffffffffffffffffffffffffffffffffff1673ffffffffffffffffffffffffffffffffffffffff1681526020019081526020016000206000015401601160003373ffffffffffffffffffffffffffffffffffffffff1673ffffffffffffffffffffffffffffffffffffffff168152602001908152602001600020600001819055503373ffffffffffffffffffffffffffffffffffffffff166108fc829081150290604051600060405180830381858888f19350505050158015610d47573d6000803e3d6000fd5b5042600c8190555060019250610d5a565b5b5b505092915050565b60a0604051908101604052806005906020820280388339808201915050905050905600a165627a7a723058203780a2ea353e61733681147c441f9e7ac5e24d844270d4088dbaff64ee68edab0029",
  "source": "pragma solidity ^0.4.23;\r\n\r\ncontract TronFarm {\r\n\r\n    uint constant coinPrice = 12500;\r\n    uint constant animals = 5;\r\n    uint constant period = 1 minutes ;\r\n\r\n    uint[animals] prices = [8400, 30000, 100000, 230400, 458800];\r\n    uint[animals] profit = [22, 80,272, 640, 1300];\r\n    uint perPrice = 2500;\r\n    uint startCoe = 100;\r\n\r\n    uint public last;\r\n    uint public totalPlayers;\r\n    uint public totalAnimals;\r\n    uint public totalPayout;\r\n    address public owner;\r\n\r\n    struct Player {\r\n        uint coinsReturned;\r\n        uint usedCoins;\r\n        uint allCoins;\r\n        uint time;\r\n        uint[animals] Animals;\r\n        uint coe;\r\n    }\r\n\r\n    mapping(address => Player) public players;\r\n\r\n    constructor() public {\r\n        owner = msg.sender;\r\n        last = now;\r\n    }\r\n\r\n    function deposit() public payable returns(bool success){\r\n        require(msg.value >= coinPrice);\r\n\r\n        Player storage player = players[msg.sender];\r\n        uint startCoins = player.allCoins;\r\n        player.allCoins = startCoins + (msg.value / coinPrice);\r\n        player.usedCoins = player.usedCoins + msg.value / coinPrice;\r\n\r\n        if (player.time == 0) {\r\n            player.time = now;\r\n            totalPlayers++;\r\n            player.coe = startCoe;\r\n        }\r\n        return true;\r\n    }\r\n\r\n    function buy(uint _type, uint _number) public returns(bool success){\r\n        require(_type < animals && _number > 0);\r\n        collect(msg.sender);\r\n\r\n        uint paymentCoins = prices[_type] * _number;\r\n        Player storage player = players[msg.sender];\r\n\r\n        require(paymentCoins <= player.allCoins);\r\n        player.allCoins = player.allCoins - paymentCoins;\r\n\r\n        player.Animals[_type] = player.Animals[_type] + _number;\r\n        players[owner].allCoins = players[owner].allCoins +  (paymentCoins / 10);\r\n\r\n        totalAnimals = totalAnimals + _number;\r\n        return true;\r\n    }\r\n\r\n    function withdraw(uint _coins) public returns (bool success){\r\n        require(_coins > 0);\r\n        collect(msg.sender);\r\n        require(_coins <= players[msg.sender].allCoins);\r\n\r\n        transfer(msg.sender, _coins * coinPrice);\r\n        return true;\r\n     }\r\n\r\n    function collect(address _addr) internal {\r\n        Player storage player = players[_addr];\r\n        require(player.time > 0);\r\n        require(address(this).balance >= 0);\r\n\r\n        uint hoursAdded = (now - player.time) / period;\r\n        if (hoursAdded > 0) {\r\n            uint hourlyProfit;\r\n            for (uint i = 0; i < animals; i++) {\r\n                hourlyProfit = hourlyProfit + (player.Animals[i] * profit[i]);\r\n            }\r\n            player.allCoins = player.allCoins + (hoursAdded * hourlyProfit * player.coe / 100);\r\n            player.time = player.time + (hoursAdded * period);\r\n        }\r\n    }\r\n\r\n    function transfer(address _to, uint _amount) internal returns(bool success){\r\n        if (_amount > 0 && _to != address(0)) {\r\n            uint contractBalance = address(this).balance;\r\n            if (contractBalance > 0) {\r\n                uint payout = _amount > contractBalance ? contractBalance : _amount;\r\n                totalPayout = totalPayout + payout;\r\n                players[msg.sender].allCoins = players[msg.sender].allCoins - payout/coinPrice;\r\n                players[msg.sender].coinsReturned = players[msg.sender].coinsReturned + payout/coinPrice;\r\n                msg.sender.transfer(payout);\r\n                last = now;\r\n                return true;\r\n            }\r\n        }\r\n    }\r\n\r\n    function animalsOf(address _addr) public view returns (uint [animals]) {\r\n        return players[_addr].Animals;\r\n    }\r\n\r\n    function setCoe(uint _per) public{\r\n        Player storage player = players[msg.sender];\r\n        collect(msg.sender);\r\n\r\n        require(_per > 0);\r\n        require(_per * perPrice <= player.allCoins);\r\n        require(_per + player.coe <= 105);\r\n        player.allCoins = player.allCoins - (_per * perPrice);\r\n        players[owner].allCoins = players[owner].allCoins +  (_per * perPrice)/10;\r\n\r\n        player.coe = player.coe + _per;\r\n    }\r\n\r\n}\r\n",
  "sourcePath": "C:\\Users\\t\\Tron-Farm\\Tron-Farm\\contracts\\TronFarm.sol",
  "compiler": {
    "name": "solc",
    "version": "0.4.25+commit.69a1e720.Emscripten.clang"
  },
  "schemaVersion": "2.0.1",
  "updatedAt": "2019-07-17T10:29:50.859Z"
}