{
  "contractName": "TronFarm",
  "abi": [
    {
      "constant": true,
      "inputs": [],
      "name": "totalPayout",
      "outputs": [
        {
          "name": "",
          "type": "uint256"
        }
      ],
      "payable": false,
      "stateMutability": "view",
      "type": "function"
    },
    {
      "constant": true,
      "inputs": [],
      "name": "totalInvested",
      "outputs": [
        {
          "name": "",
          "type": "uint256"
        }
      ],
      "payable": false,
      "stateMutability": "view",
      "type": "function"
    },
    {
      "constant": true,
      "inputs": [],
      "name": "totalAnimals",
      "outputs": [
        {
          "name": "",
          "type": "uint256"
        }
      ],
      "payable": false,
      "stateMutability": "view",
      "type": "function"
    },
    {
      "constant": true,
      "inputs": [
        {
          "name": "",
          "type": "address"
        }
      ],
      "name": "players",
      "outputs": [
        {
          "name": "coinsReturned",
          "type": "uint256"
        },
        {
          "name": "usedCoins",
          "type": "uint256"
        },
        {
          "name": "allCoins",
          "type": "uint256"
        },
        {
          "name": "time",
          "type": "uint256"
        },
        {
          "name": "coe",
          "type": "uint256"
        }
      ],
      "payable": false,
      "stateMutability": "view",
      "type": "function"
    },
    {
      "constant": true,
      "inputs": [],
      "name": "totalPlayers",
      "outputs": [
        {
          "name": "",
          "type": "uint256"
        }
      ],
      "payable": false,
      "stateMutability": "view",
      "type": "function"
    },
    {
      "inputs": [],
      "payable": false,
      "stateMutability": "nonpayable",
      "type": "constructor"
    },
    {
      "constant": false,
      "inputs": [],
      "name": "deposit",
      "outputs": [
        {
          "name": "success",
          "type": "bool"
        }
      ],
      "payable": true,
      "stateMutability": "payable",
      "type": "function"
    },
    {
      "constant": false,
      "inputs": [
        {
          "name": "_type",
          "type": "uint256"
        },
        {
          "name": "_number",
          "type": "uint256"
        }
      ],
      "name": "buy",
      "outputs": [
        {
          "name": "success",
          "type": "bool"
        }
      ],
      "payable": false,
      "stateMutability": "nonpayable",
      "type": "function"
    },
    {
      "constant": false,
      "inputs": [
        {
          "name": "_coins",
          "type": "uint256"
        }
      ],
      "name": "withdraw",
      "outputs": [
        {
          "name": "success",
          "type": "bool"
        }
      ],
      "payable": false,
      "stateMutability": "nonpayable",
      "type": "function"
    },
    {
      "constant": true,
      "inputs": [
        {
          "name": "_addr",
          "type": "address"
        }
      ],
      "name": "animalsOf",
      "outputs": [
        {
          "name": "",
          "type": "uint256[5]"
        }
      ],
      "payable": false,
      "stateMutability": "view",
      "type": "function"
    },
    {
      "constant": false,
      "inputs": [
        {
          "name": "_per",
          "type": "uint256"
        }
      ],
      "name": "setCoe",
      "outputs": [],
      "payable": false,
      "stateMutability": "nonpayable",
      "type": "function"
    }
  ],
  "bytecode": "0x608060405260a06040519081016040528061168062ffffff168152602001612df062ffffff168152602001615dc062ffffff16815260200161ef1062ffffff1681526020016204c2c062ffffff16815250600090600561006092919061012c565b5060a060405190810160405280601961ffff168152602001603261ffff168152602001606461ffff16815260200160fa61ffff1681526020016104e261ffff1681525060059060056100b3929190610173565b50610bb8600a556064600b553480156100cb57600080fd5b50d380156100d857600080fd5b50d280156100e557600080fd5b5033601060006101000a81548173ffffffffffffffffffffffffffffffffffffffff021916908373ffffffffffffffffffffffffffffffffffffffff1602179055506101de565b8260058101928215610162579160200282015b82811115610161578251829062ffffff1690559160200191906001019061013f565b5b50905061016f91906101b9565b5090565b82600581019282156101a8579160200282015b828111156101a7578251829061ffff16905591602001919060010190610186565b5b5090506101b591906101b9565b5090565b6101db91905b808211156101d75760008160009055506001016101bf565b5090565b90565b610b7d80620001ee6000396000f3006080604052600436106100a4576000357c0100000000000000000000000000000000000000000000000000000000900463ffffffff1680632e1a7d4d146100a9578063454f7b8f146101085780635216aeec1461014d5780636a0ec925146101925780639e8db9a6146101d7578063c6a4515214610270578063d0e30db0146102b7578063d6febde8146102d9578063e2eb41ff14610342578063f60cdcf6146103cf575b600080fd5b3480156100b557600080fd5b50d380156100c257600080fd5b50d280156100cf57600080fd5b506100ee60048036038101908080359060200190929190505050610414565b604051808215151515815260200191505060405180910390f35b34801561011457600080fd5b50d3801561012157600080fd5b50d2801561012e57600080fd5b50610137610520565b6040518082815260200191505060405180910390f35b34801561015957600080fd5b50d3801561016657600080fd5b50d2801561017357600080fd5b5061017c610526565b6040518082815260200191505060405180910390f35b34801561019e57600080fd5b50d380156101ab57600080fd5b50d280156101b857600080fd5b506101c161052c565b6040518082815260200191505060405180910390f35b3480156101e357600080fd5b50d380156101f057600080fd5b50d280156101fd57600080fd5b50610232600480360381019080803573ffffffffffffffffffffffffffffffffffffffff169060200190929190505050610532565b6040518082600560200280838360005b8381101561025d578082015181840152602081019050610242565b5050505090500191505060405180910390f35b34801561027c57600080fd5b50d3801561028957600080fd5b50d2801561029657600080fd5b506102b5600480360381019080803590602001909291905050506105bf565b005b6102bf61066d565b604051808215151515815260200191505060405180910390f35b3480156102e557600080fd5b50d380156102f257600080fd5b50d280156102ff57600080fd5b50610328600480360381019080803590602001909291908035906020019092919050505061071a565b604051808215151515815260200191505060405180910390f35b34801561034e57600080fd5b50d3801561035b57600080fd5b50d2801561036857600080fd5b5061039d600480360381019080803573ffffffffffffffffffffffffffffffffffffffff169060200190929190505050610901565b604051808681526020018581526020018481526020018381526020018281526020019550505050505060405180910390f35b3480156103db57600080fd5b50d380156103e857600080fd5b50d280156103f557600080fd5b506103fe610937565b6040518082815260200191505060405180910390f35b6000808211151561042457600080fd5b61042d3361093d565b601160003373ffffffffffffffffffffffffffffffffffffffff1673ffffffffffffffffffffffffffffffffffffffff16815260200190815260200160002060020154821115151561047e57600080fd5b81601160003373ffffffffffffffffffffffffffffffffffffffff1673ffffffffffffffffffffffffffffffffffffffff1681526020019081526020016000206002015403601160003373ffffffffffffffffffffffffffffffffffffffff1673ffffffffffffffffffffffffffffffffffffffff16815260200190815260200160002060020181905550610517336130d48402610a5b565b60019050919050565b600f5481565b600d5481565b600e5481565b61053a610b2e565b601160008373ffffffffffffffffffffffffffffffffffffffff1673ffffffffffffffffffffffffffffffffffffffff1681526020019081526020016000206004016005806020026040519081016040528092919082600580156105b3576020028201915b81548152602001906001019080831161059f575b50505050509050919050565b6000601160003373ffffffffffffffffffffffffffffffffffffffff1673ffffffffffffffffffffffffffffffffffffffff168152602001908152602001600020905061060b3361093d565b60008211151561061a57600080fd5b8060020154600a5483021115151561063157600080fd5b6069816009015483011115151561064757600080fd5b600a54820281600201540381600201819055508181600901540181600901819055505050565b6000806130d4341015151561068157600080fd5b601160003373ffffffffffffffffffffffffffffffffffffffff1673ffffffffffffffffffffffffffffffffffffffff16815260200190815260200160002090506130d4348115156106cf57fe5b048160020154018160020181905550600b54816009018190555060008160030154141561071257428160030181905550600c600081548092919060010191905055505b600191505090565b600080600060058510801561072f5750600084115b151561073a57600080fd5b6107433361093d565b8360008660058110151561075357fe5b0154029150601160003373ffffffffffffffffffffffffffffffffffffffff1673ffffffffffffffffffffffffffffffffffffffff1681526020019081526020016000209050806002015482111515156107ac57600080fd5b8181600201540381600201819055508181600101540181600101819055508381600401866005811015156107dc57fe5b01540181600401866005811015156107f057fe5b0181905550600a8281151561080157fe5b0460116000601060009054906101000a900473ffffffffffffffffffffffffffffffffffffffff1673ffffffffffffffffffffffffffffffffffffffff1673ffffffffffffffffffffffffffffffffffffffff168152602001908152602001600020600201540160116000601060009054906101000a900473ffffffffffffffffffffffffffffffffffffffff1673ffffffffffffffffffffffffffffffffffffffff1673ffffffffffffffffffffffffffffffffffffffff168152602001908152602001600020600201819055506009600a838115156108de57fe5b0402600d5401600d8190555083600e5401600e8190555060019250505092915050565b60116020528060005260406000206000915090508060000154908060010154908060020154908060030154908060090154905085565b600c5481565b600080600080601160008673ffffffffffffffffffffffffffffffffffffffff1673ffffffffffffffffffffffffffffffffffffffff16815260200190815260200160002093506000846003015411151561099757600080fd5b610e10846003015442038115156109aa57fe5b0492506000831115610a5457600090505b60058110156109fa576005816005811015156109d357fe5b015484600401826005811015156109e657fe5b0154028201915080806001019150506109bb565b6064846009015483850202811515610a0e57fe5b0484600001540184600001819055506064846009015483850202811515610a3157fe5b048460020154018460020181905550610e10830284600301540184600301819055505b5050505050565b600080600083118015610a9b5750600073ffffffffffffffffffffffffffffffffffffffff168473ffffffffffffffffffffffffffffffffffffffff1614155b15610b28573073ffffffffffffffffffffffffffffffffffffffff163191506000821115610b2757818311610ad05782610ad2565b815b905080600f5401600f819055503373ffffffffffffffffffffffffffffffffffffffff166108fc829081150290604051600060405180830381858888f19350505050158015610b25573d6000803e3d6000fd5b505b5b50505050565b60a0604051908101604052806005906020820280388339808201915050905050905600a165627a7a723058204490f2d0660dbff01a34b868dfce071c36569c7babcbc6d83d16166caf4fb4310029",
  "source": "pragma solidity ^0.4.23;\r\n\r\ncontract TronFarm {\r\n\r\n    uint constant coinPrice = 12500;\r\n    uint constant animals = 5;\r\n    uint constant period = 60 minutes;\r\n\r\n    uint[animals] prices = [5760, 11760, 24000, 61200, 312000];\r\n    uint[animals] profit = [25, 50, 100, 250, 1250];\r\n    uint perPrice = 3000;\r\n    uint startCoe = 100;\r\n\r\n    uint public totalPlayers;\r\n    uint public totalInvested;\r\n    uint public totalAnimals;\r\n    uint public totalPayout;\r\n\r\n    address owner;\r\n\r\n    struct Player {\r\n        uint coinsReturned;\r\n        uint usedCoins;\r\n        uint allCoins;\r\n        uint time;\r\n        uint[animals] Animals;\r\n        uint coe;\r\n    }\r\n\r\n    mapping(address => Player) public players;\r\n\r\n    constructor() public {\r\n        owner = msg.sender;\r\n    }\r\n\r\n    function deposit() public payable returns(bool success){\r\n        require(msg.value >= coinPrice);\r\n\r\n        Player storage player = players[msg.sender];\r\n        player.allCoins = player.allCoins + msg.value / coinPrice;\r\n        player.coe = startCoe;\r\n\r\n        if (player.time == 0) {\r\n            player.time = now;\r\n            totalPlayers++;\r\n        }\r\n        return true;\r\n    }\r\n\r\n    function buy(uint _type, uint _number) public returns(bool success){\r\n        require(_type < animals && _number > 0);\r\n        collect(msg.sender);\r\n\r\n        uint paymentCoins = prices[_type] * _number;\r\n        Player storage player = players[msg.sender];\r\n\r\n        require(paymentCoins <= player.allCoins);\r\n        player.allCoins = player.allCoins - paymentCoins;\r\n        player.usedCoins = player.usedCoins + paymentCoins;\r\n\r\n        player.Animals[_type] = player.Animals[_type] + _number;\r\n        players[owner].allCoins = players[owner].allCoins +  (paymentCoins / 10);\r\n        totalInvested = totalInvested + (paymentCoins / 10 * 9);\r\n\r\n        totalAnimals = totalAnimals + _number;\r\n        return true;\r\n    }\r\n\r\n    function withdraw(uint _coins) public returns (bool success){\r\n        require(_coins > 0);\r\n        collect(msg.sender);\r\n        require(_coins <= players[msg.sender].allCoins);\r\n\r\n        players[msg.sender].allCoins = players[msg.sender].allCoins - _coins;\r\n        transfer(msg.sender, _coins * coinPrice);\r\n        return true;\r\n    }\r\n\r\n    function collect(address _addr) internal {\r\n        Player storage player = players[_addr];\r\n        require(player.time > 0);\r\n\r\n        uint hoursAdded = (now - player.time) / period;\r\n        if (hoursAdded > 0) {\r\n            uint hourlyProfit;\r\n            for (uint i = 0; i < animals; i++) {\r\n                hourlyProfit = hourlyProfit + (player.Animals[i] * profit[i]);\r\n            }\r\n            player.coinsReturned = player.coinsReturned + (hoursAdded * hourlyProfit * player.coe / 100);\r\n            player.allCoins = player.allCoins + (hoursAdded * hourlyProfit * player.coe / 100);\r\n            player.time = player.time + (hoursAdded * period);\r\n        }\r\n    }\r\n\r\n    function transfer(address _to, uint _amount) internal {\r\n        if (_amount > 0 && _to != address(0)) {\r\n            uint contractBalance = address(this).balance;\r\n            if (contractBalance > 0) {\r\n                uint payout = _amount > contractBalance ? contractBalance : _amount;\r\n                totalPayout = totalPayout + payout;\r\n                msg.sender.transfer(payout);\r\n            }\r\n        }\r\n    }\r\n\r\n    function animalsOf(address _addr) public view returns (uint [animals]) {\r\n        return players[_addr].Animals;\r\n    }\r\n\r\n    function setCoe(uint _per) public{\r\n        Player storage player = players[msg.sender];\r\n        collect(msg.sender);\r\n\r\n        require(_per > 0);\r\n        require(_per * perPrice <= player.allCoins);\r\n        require(_per + player.coe <= 105);\r\n        player.allCoins = player.allCoins - (_per * perPrice);\r\n\r\n        player.coe = player.coe + _per;\r\n    }\r\n\r\n}\r\n",
  "sourcePath": "D:\\work\\Project\\contracts\\TronFarm.sol",
  "compiler": {
    "name": "solc",
    "version": "0.4.25+commit.69a1e720.Emscripten.clang"
  },
  "schemaVersion": "2.0.1",
  "updatedAt": "2019-06-14T16:24:45.103Z"
}